:020000040800F2
:10000000F819002069010008B9060008190600085F
:10001000B506000855040008AD09000800000000FE
:10002000000000000000000000000000B70700080A
:10003000F905000800000000E5060008B9070008FF
:100040008301000883010008830100088301000880
:100050008301000883010008830100088301000870
:100060008301000883010008830100086905000876
:100070008905000883010008B1050008D9050008BA
:100080008301000883010008830100088301000840
:100090008301000883010008830100088301000830
:1000A0008301000883010008830100088301000820
:1000B0008301000819080008C1080008830100082E
:1000C0008301000883010008830100088301000800
:1000D00083010008DD0800088301000845090008C5
:1000E00083010008830100088301000883010008E0
:1000F000830100088301000883010008000000005C
:10010000830100080000000083010008830100084B
:1001100083010008830100088301000883010008AF
:10012000830100088301000883010008830100089F
:1001300083010008000000000000000083010008A7
:10014000830100088301000883010008830100087F
:10015000DFF810D000F03EF80048004761160008B4
:10016000AFF30080F8190020064880470648004792
:10017000FEE7FEE7FEE7FEE7FEE7FEE7FEE7FEE757
:10018000FEE7FEE7C10700085101000840EA01034D
:100190009B0703D009E008C9121F08C0042AFAD23D
:1001A00003E011F8013B00F8013B521EF9D2704701
:1001B000D2B201E000F8012B491EFBD270470022A9
:1001C000F6E710B513460A4604461946FFF7F0FF56
:1001D000204610BD064C074D06E0E06840F00103E4
:1001E00094E8070098471034AC42F6D3FFF7B4FF09
:1001F000382000085820000810B590B0044640226E
:1002000079496846FFF7C2FF1DF8240000F001009D
:1002100028B14FF48051754801F056F904E04FF4CD
:100220008051724801F04EF91DF82400C0F34000DF
:1002300028B14FF400516D4801F046F904E04FF445
:1002400000516A4801F03EF91DF82400C0F3800017
:1002500028B14FF48041654801F036F904E04FF4CD
:100260008041624801F02EF91DF82400C0F3C0005F
:1002700028B14FF400415D4801F026F904E04FF445
:1002800000415A4801F01EF91DF82400C0F3001087
:1002900028B14FF48071564801F016F904E04FF48C
:1002A0008071534801F00EF91DF82400C0F340108E
:1002B00028B14FF400614E4801F006F904E04FF414
:1002C00000614B4801F0FEF81DF82400C0F38010D7
:1002D00028B14FF48051464801F0F6F804E04FF49D
:1002E0008051434801F0EEF81DF82400C0F3C0101F
:1002F00020B108213D4801F0E7F803E008213B4820
:1003000001F0E0F83DF82400C0F3002020B11021F6
:10031000364801F0D9F803E01021344801F0D2F852
:100320003DF82400C0F3402020B104212F4801F003
:10033000CBF803E004212D4801F0C4F83DF8240077
:10034000C0F3802020B10221284801F0BDF803E06D
:100350000221264801F0B6F83DF82400C0F3C02081
:1003600020B10121214801F0AFF803E001211F482D
:1003700001F0A8F83DF82400C0F3003020B180213E
:100380001B4801F0A1F803E08021194801F09AF818
:100390003DF82400C0F3403020B14021144801F062
:1003A00093F803E04021124801F08CF83DF8240056
:1003B000C0F3803020B120210D4801F085F803E022
:1003C00020210B4801F07EF83DF82400C0F3C03036
:1003D00020B11021064801F077F803E0102104480D
:1003E00001F070F810B010BDF81F0008000C0140BB
:1003F0000008014010B5044604F0010020B120219E
:100400000A4801F061F803E02021084801F05AF899
:10041000C4F3400020B14021044801F055F803E046
:100420004021024801F04EF810BD0000000C0140D0
:1004300070B504460D4600264FF40051044801F003
:10044000BFF820B92A462146022001F079FD70BD8F
:100450000010014000BFFEE710B502460023002057
:1004600003E0145C1C44A3B2401C8842F9DB18462C
:1004700010BD000010B5044604F0010028B14FF48F
:1004800000710C4801F020F804E04FF400710948B5
:1004900001F018F8C4F3400028B14FF4807105480A
:1004A00001F012F804E04FF48071024801F00AF8FC
:1004B00010BD0000000C014070B505460E46144604
:1004C000EE602046002100F0DDF80023584059403E
:1004D000084309D1B4F1004F02D34FF0004403E0C8
:1004E000204600F04CF904462C600020A8606860AB
:1004F000204670BD2DE9F04104460F461546D4E96B
:100500000101401A2168081AA84205D2D4E9010164
:10051000401A2168081A00E028460546D4E9001070
:10052000491E08402168081AA84206D2D4E90010E2
:10053000491E08402168081A00E028460646D4E90A
:100540000021521E1140E268881832463946FFF7F2
:100550001DFEAA1BB919E068FFF718FE6068284461
:1005600060602846BDE8F08110B5022200210548F0
:1005700000F0AEFE20B101220021024800F0A0FEF2
:1005800010BD00000000024010B502220121064803
:1005900000F09EFE38B101221146034800F090FEA3
:1005A00001200249087010BD000002402C0000200C
:1005B00010B502220321064800F08AFE38B101225C
:1005C0000321034800F07CFE01200249087010BDA1
:1005D000000002402D00002010B502220421054831
:1005E00000F076FE20B101220421024800F068FEEE
:1005F00010BD0000000002407047000010B5044626
:1006000001F090FA042C03DA024830F8140010BD0F
:100610000020FCE72400002000BFFEE700BF011E11
:10062000A0F10100FBD1704710B540F2026001F06B
:1006300049FA40F2036001F045FA4FF4C06001F05E
:1006400041FA01210C4800F0C3FF4FF27F3303222F
:1006500010210A4800F056FF49F6F013032210213A
:10066000074800F04FFF4FF40041054800F02AFF13
:100670000320FFF7FFFE10BD00023000000C014018
:100680000008014030B502460B46002182EA010015
:10069000594008430BD0501E63F10001104019402F
:1006A000002568406940084301D1012000E0002096
:1006B000C11730BD00BFFEE77047000010B500282D
:1006C00007DA0A07140E054A00F00F031B1FD45463
:1006D00003E00A07130E024A135410BD18ED00E0A0
:1006E00000E400E070472DE9F0410646002442E0B6
:1006F000E0B2FFF77FFE002539E02846FFF77CFDDA
:1007000041F25860FFF78AFF0120FFF777FF0746A5
:1007100000EBD770401006EB451121F814000020C3
:10072000FFF76CFF074600EBD770401006EB451251
:10073000211D22F811000220FFF760FF074600EBA1
:10074000D770401006EB451204F1080122F81100A1
:100750000320FFF753FF074600EBD770401006EB6E
:10076000451204F10C0122F81100681C85B2102D0D
:10077000C3DB601C84B2042CBADBBDE8F08130B569
:100780000446012520460021FFF77CFF0023584046
:100790005940084300D10CB9204630BDB4F1004F98
:1007A00002D34FF00040F8E701E064086D00002C30
:1007B000FBD16808F1E7704710B500F0C9FA10BD29
:1007C00010B51248006840F47000104908601048E5
:1007D000006840F001000E49086000204860C862CF
:1007E000084600680B490840094908604FF47F003B
:1007F00088600846006820F48020086001F034FA20
:1008000000214FF0006001F049F810BD88ED00E0D4
:1008100000100240FFFFF6EA10B50221214801F066
:1008200067FA01283CD102211E4801F05EFA1E48F9
:10083000008848B900211B4801F042FA1B49088092
:100840000120194908802BE017480088012827D18A
:100850000021144801F034FA154908800846008840
:1008600012490988884207DD114800880F49098824
:10087000401A1049086009E00C4800884FF6FF71E3
:10088000081A0B49098808440A49086009480068A1
:100890000949B1FBF0F009490880002002490880AD
:1008A00010BD0000000400401400002010000020D3
:1008B000120000201800002040420F001C00002001
:1008C00010B50121044801F013FA012803D10121D8
:1008D000014801F00AFA10BD0008004010B50024DC
:1008E0001349144801F05CFB08B312480068114832
:1008F000001D00680421104800F066FB04210E482A
:1009000000F07FFDC0F5007422460C490C48FFF74B
:10091000F1FD0421084800F057FB4FF40072042158
:10092000054800F05BFD0421034800F066FB10BDA4
:10093000040304000038014000000240D8110020E8
:10094000D815002010B500241349144801F028FBE5
:1009500008B3124800681148001D006802211048C1
:1009600000F032FB02210E4800F04BFDC0F5007490
:1009700022460C490C48FFF7BDFD0221084800F053
:1009800023FB4FF400720221054800F027FD0221ED
:10099000034800F032FB10BD04030400004800408F
:1009A00000000240D8130020E815002000BFFEE739
:1009B00002E008C8121F08C1002AFAD17047704728
:1009C000002001E001C1121F002AFBD1704781689D
:1009D00041F00801816000BF816801F00801002931
:1009E000FAD1816841F00401816000BF816801F0A3
:1009F00004010029FAD1704730B5012902D002293B
:100A00001AD10CE0C36A23F47003C362C36A541E94
:100A10004FF4700505EA04542343C3620DE0836B71
:100A200023F440138363836B541E4FF4401505EA8F
:100A300004542343836300E000BF00BF30BD0000C7
:100A400010B5264800F058F8002000F0C7F8012241
:100A50000221224800F035F9012211021F4800F05E
:100A600030F900211D4800F03BF8042201211B4809
:100A7000FFF7C2FF052300221146184800F0BCF81A
:100A8000052301221146154800F0B6F8052302227D
:100A90001146124800F0B0F80523032211460F4812
:100AA00000F0AAF84FF4602201210C4800F071F820
:100AB00001221146094800F04DF8084800F041F8BD
:100AC000642000F03BF90548FFF781FF034800F080
:100AD00033F80121014800F0E5F810BD0024014081
:100AE00021B1826842F40062826003E0826822F4ED
:100AF000006282607047000010B504460D48204433
:100B000018B1B0F5806F12D108E040F2093000F062
:100B1000F9FF40F2093000F0E5FF09E040F20A3049
:100B200000F0F0FF40F20A3000F0DCFF00E000BF10
:100B300000BF10BD00DCFEBF816841F480718160A0
:100B40007047816801F0010119B9816841F0010124
:100B50008160704772B101F001031BB1836843F4F7
:100B60008013836001F0020393B1836843F4004370
:100B700083600DE001F001031BB1836823F480134F
:100B8000836001F002031BB1836823F40043836098
:100B90007047012902D0022910D107E0836823F4AD
:100BA0006023836083681343836008E0836823F4D1
:100BB000E043836083681343836000E000BF00BFAD
:100BC000704710B500F06CFF01F052F800F07EFCA9
:100BD00000F05EFAFFF734FF10BD00000549096818
:100BE00021F47021034A1160114609680143116024
:100BF0007047000004240140F0B51D4606290CDAB8
:100C0000436B01EB81071F26BE40B34301EB810616
:100C100002FA06F63343436322E00C290EDA036B33
:100C20008E1F06EB86071F26BE40B3438E1F06EBC2
:100C3000860602FA06F63343036311E010290FDA41
:100C4000C36AA1F10C0606EB86071F26BE40B3431C
:100C5000A1F10C0606EB860602FA06F63343C362E0
:100C60000A2A0CDA046902EB42070726BE40B443A5
:100C700002EB420605FA06F63443046111E0122A3B
:100C80000FDAC468A2F10A0606EB46070726BE4043
:100C9000B443A2F10A0606EB460605FA06F634430B
:100CA000C460F0BD01F001021AB1826842F4800212
:100CB000826001F002021AB1826842F4001282607E
:100CC0007047AAB101F480731BB1436843F4807389
:100CD000436001F480631BB1436843F48063436065
:100CE00001F00203CBB1836843F00203836014E098
:100CF00001F480731BB1436823F48073436001F4F3
:100D000080631BB1436823F48063436001F00203F6
:100D10001BB1836823F002038360704710B540F273
:100D2000046000F0CFFE4FF4005303220421024878
:100D300000F0E8FB10BD000000100140034908600E
:100D400000BF024909680029FBD170470C00002050
:100D50000448006820B103480068401E014908604B
:100D6000704700000C0000201FB5024610A4D4E913
:100D70000013D4E90204CDE90204CDE900130020F8
:100D800012E000210CE002EB40131DF8014013F8C3
:100D9000144002F5A46303EB00135C544B1CD9B25E
:100DA0001029F0DB411CC8B21028EADB1FBD00008F
:100DB00002030100060705040A0B09080E0F0D0CBB
:100DC00000B587B04FF4A06000F07CFE0121194807
:100DD00000F08EF9684600F0F3FA01208DF81A0051
:100DE0001548029001208DF81900002003904FF45F
:100DF000007004901148009000208DF818000190B8
:100E000005906A4601210B4800F0AAF90121094822
:100E100000F00CF90121074800F0ADFA022201218F
:100E2000044800F034FA0121024800F0CDF807B080
:100E300000BD000000000240D80F00200448004020
:100E400000B587B01C216846FFF7B9F94FF4A060E0
:100E500000F038FE0221194800F04AF9684600F017
:100E6000AFFA00208DF81A001548029001208DF885
:100E70001900002003904FF4007004901148009076
:100E800000208DF81800039005906A4602210B4857
:100E900000F066F90221094800F0C8F8022107486D
:100EA00000F069FA40210748001F01F041F80221D3
:100EB000024800F0A2F807B000BD000000000240A8
:100EC000D81300200448004000B587B04FF4A0605C
:100ED00000F0F8FD0321194800F00AF9684600F017
:100EE0006FFA01208DF81A001548029001208DF844
:100EF0001900002003904FF40070049011480090F6
:100F000000208DF81800019005906A4603210B48D7
:100F100000F026F90321094800F088F8032107486A
:100F200000F029FA02220321044800F0B0F903215D
:100F3000024800F049F807B000BD00000000024080
:100F4000D80B00200438014000B587B04FF4A060F2
:100F500000F0B8FD0421194800F0CAF8684600F016
:100F60002FFA00208DF81A001548029001208DF804
:100F70001900002003904FF4007004901148009075
:100F800000208DF81800039005906A4604210B4854
:100F900000F0E6F80421094800F048F80421074869
:100FA00000F0E9F940210748001F00F0C1FF0421CB
:100FB000024800F022F807B000BD00000000024027
:100FC000D81100200438014070B505460C46214672
:100FD000284600F0E9F908B900BFFEE704EB8400F9
:100FE000810005F10800405820F0010104EB840065
:100FF000820005F10800815070BD70B505460C46B1
:101000002146284600F0D0F908B900BFFEE704EBFE
:101010008400810005F10800405840F0010104EB14
:101020008400820005F10800815070BD70B505464E
:101030000C462146284600F0B7F908B900BFFEE784
:1010400004EB8400810005F10800405820F02001E5
:1010500004EB8400820005F10800815070BD70B57A
:1010600005460C462146284600F09EF908B900BF07
:10107000FEE704EB8400810005F10800405840F0D1
:10108000200104EB8400820005F10800815070BD4E
:1010900000B587B00021134800F02AF812480090EC
:1010A00000208DF818001148029001208DF81900D9
:1010B000000201908000039000208DF81A0020208B
:1010C0000490000205906A460021064800F048F8A6
:1010D00000210448FFF7C3FF00210248FFF78DFFFE
:1010E00007B000BD000002404C24014098090020D8
:1010F00070B504460D462946204600F055F908B95A
:1011000000BFFEE705EB8500810004F108004058B0
:1011100020F0010105EB8500820004F108008150F8
:10112000002105EB8500820004F10800815005EBE9
:101130008500820004F10C00815005EB85008200DF
:1011400004F11000815005EB8500820004F11400C9
:1011500081506068AA000F2191400843606070BD13
:101160002DE9F04104460D4616462946204600F07A
:101170001BF908B900BFFEE705EB8500820004F10A
:1011800010003168815005EB8500820004F11400E5
:10119000B1688150308A81B205EB8500820004F18C
:1011A0000C00815005EB8500810004F108004758D0
:1011B00027F47C57F1687068084371690843074356
:1011C00005EB8500810004F108004750307E0128BE
:1011D0000ED105EB8500810004F10800405840F075
:1011E000400105EB8500820004F1080081500DE00C
:1011F00005EB8500810004F10800405820F0400113
:1012000005EB8500820004F108008150707E012802
:101210000ED105EB8500810004F10800405840F034
:10122000800105EB8500820004F1080081500DE08B
:1012300005EB8500810004F10800405820F0800192
:1012400005EB8500820004F108008150B07E70B982
:1012500005EB8500810004F10800405820F01001E2
:1012600005EB8500820004F1080081500DE005EBDC
:101270008500810004F10800405840F0100105EBA2
:101280008500820004F108008150BDE8F08170B54E
:1012900004460D4616462946204600F085F808B952
:1012A00000BFFEE705EB8500810004F1080040580F
:1012B000304305EB85018A0004F10801885070BDB8
:1012C00010B543688C0002FA04F42343436010BD58
:1012D00070B5034600BF00BF022A04D0042A11D013
:1012E000082A2DD11DE018688E0002FA06F600EAE1
:1012F000060501EB8100860003F10800805900F02B
:1013000002041FE018688E0002FA06F600EA0605DD
:1013100001EB8100860003F10800805900F004040D
:1013200010E018688E0002FA06F600EA060501EBE6
:101330008100860003F10800805900F0080401E0F4
:1013400000BFFEE700BF15B10CB1012070BD002049
:10135000FCE770B506460C4615462146304600F0BF
:1013600023F808B900BFFEE704EB8400810006F112
:101370001400455070BD70B505460C462146284600
:1013800000F012F808B900BFFEE704EB840081000A
:1013900005F10800405820F4804104EB84008200ED
:1013A00005F10800815070BD02460120034B9A42AE
:1013B00002D1042900DD0020704700000004024033
:1013C00008B900BFFEE7002101604160017681603D
:1013D000C1604176016181764161704770B5064612
:1013E0000C46154621463046FFF7DEFF08B900BF20
:1013F000FEE7A9B204EB8400820006F10C008150E4
:1014000070BD70B505460C4621462846FFF7CCFF57
:1014100008B900BFFEE704EB8400810005F10C0071
:10142000405870BD70B505460E4600241E488542E2
:1014300000D103E01D48854200D102241C4931F847
:10144000140000F03FFB1B4931F8140000F03AFB98
:10145000194951F82430194951F824000322182160
:1014600000F050F8164951F82430144951F824007E
:101470000322042100F046F8284600F011FD314611
:10148000284600F0C5FC0421284600F0A5FD0821EF
:10149000284600F0A9FD284600F070FD4FF4417188
:1014A000284600F070FD70BD003801400048004043
:1014B000680000202E000020380000205800002086
:1014C00048000020416170470161704710B5012359
:1014D000042200210A4800F015F80223042200210A
:1014E000074800F00FF804231A460021044800F0D2
:1014F00009F8082304220021014800F003F810BD78
:1015000000080140F0B5044616460025002201F00F
:101510000F0501F0100747B1042E05D145F0030572
:10152000E76B1F43E76300E0354300201EE001271F
:1015300087401F40C7B122684FEA800C0F2707FA87
:101540000CF7BA43870005FA07F73A43282904D174
:10155000012787401F40676105E0482903D1012723
:1015600087401F4027612260471CB8B20828DED39D
:10157000082022E0012787401F40E7B16268A0F100
:1015800008074FEA870C0F2707FA0CF7BA43A0F1B8
:101590000807BF0005FA07F73A43282904D10127B5
:1015A00087401F40676105E0482903D10127874034
:1015B0001F4027616260471CB8B21028DAD3F0BD23
:1015C00002469068084008B1012070470020FCE7FF
:1015D000F0B50A46002300240021002500F0004653
:1015E000B6F1004F02D11D4EF16901E01B4E71684A
:1015F000C0F3034583B200F44016B6F5401F08D18E
:1016000021F0E061154E766826F0E066134F7E60AB
:1016100012E000F48016B6F5801F06D1032606FA04
:1016200005F4A14341F0E06106E0460D360103FAFE
:1016300006F6B14341F0E06122B1460D360103FAEE
:1016400006F6314300F00046B6F1004F02D1034EDA
:10165000F16101E0014E7160F0BD00000000014049
:1016600000F006FBFFF7ADFAFEF7DEFFFFF756FBD3
:101670004FF4E12000F0B2FB4FF4E12000F06CFBEE
:1016800071E039480068401C374908600846006826
:101690004FF4FA71B0FBF1F201FB120098B9334834
:1016A000007880F00100314908700846007828B1C0
:1016B0004FF400412E48FFF707FF04E04FF40041CC
:1016C0002B48FFF7FFFE284800680A21B0FBF1F223
:1016D00001FB120010B92748FFF705F822480068FF
:1016E0001421B0FBF1F201FB1200002838D10024D4
:1016F00045F6A52020490880012088704FF48370AA
:10170000A1F80300012048711A48FFF72DFB0020C3
:1017100011E000210BE0194A02EB0012555C224651
:10172000631C9CB2144B9B1D9D544A1CD1B21029C2
:10173000F1DB411CC8B21028EBDB4FF483710E487B
:10174000FEF78AFE0C49A1F806014FF484720020CE
:1017500000F0F6FB4FF484710748FEF769FE00BF06
:101760000120FFF7EBFA8CE70400002008000020BE
:10177000000801407002002090080020900700201F
:1017800010B504461448204490B1B0F5704F1FD1F5
:10179000012200210E2000F021F8002211460F2026
:1017A00000F01CF801221146252000F017F810E087
:1017B000002211460D2000F011F8012200210C201A
:1017C00000F00CF801220021272000F007F800E0CB
:1017D00000BF00BF10BD000000B8FFBF2DE9F04101
:1017E00003460D46164600240027A04624480068FC
:1017F00000F4E060B0F5A06F15D006DCB0F5407FD6
:1018000018D0B0F5806F19D110E0B0F5C06F06D0D8
:10181000B0F5E06F12D100274FF0040815E0012762
:101820004FF0030811E00227B8460EE003274FF0FF
:1018300001080AE004274FF0000806E04FF4A0601A
:1018400000F022F80227B84600BF00BFC7F104002D
:1018500005FA00F4C8F104010F20C84030400443E9
:1018600024010848C45403F01F0101208840591185
:10187000890001F1E021C1F80001BDE8F08100001C
:101880000CED00E000E400E002490143024A11606F
:10189000704700000000FA050CED00E0024A0A4023
:1018A0000243024B1A60704780FFFF1F08ED00E003
:1018B000184B5968184B1940164BDA6A22F000523F
:1018C0000C2820D2DFE800F0060708091F0C1F0DC6
:1018D0001516171800BF00BF00BF41EA803113E0A2
:1018E00000BF20F004004FF0805343EA80331943D7
:1018F0000AE000BF00BF00BF20F00C0041EA8031C9
:1019000042F0005200E000BF00BF024B5960DA62B3
:101910007047000000100240FF3FFFEF2DE9F14F3C
:101920008EB000200C9055A090E8004CC068CDE926
:1019300005BECDF810A0079051A0D0F804A0006813
:10194000CDE9020A0FF2381ADAE9000ACDE9000AF5
:101950004E484068C0F381000D900D9820B10128D9
:1019600004D0022856D103E0494A55E0494A53E0E1
:101970004648406800F48039B9F5803F2FD143488C
:10198000C06A00F080400B900B9808B9414900E014
:1019900041493E48C06A00F480300A900A98B0F588
:1019A000803F12D13948C06AC0F30310401C089030
:1019B0003648C06AC0F30320871C112F00D11427BA
:1019C0000898B1FBF0F000FB07F13048C06A00F066
:1019D0000F00401C09900998B1FBF0F100E02F497D
:1019E0002A484068C0F383432848406800F000500C
:1019F00008B143F010030F2B01D29B1C00E05B1CCD
:101A000001FB03F20F2B04D101EB4100400000EB7E
:101A1000510201E01E4A00BF00BF1C484068C0F3ED
:101A2000031504A8465D22FA06F418484068C0F37E
:101A3000022502A8465D24FA06FC14484068C0F35B
:101A4000C2251DF8056024FA06F80E9830B1012869
:101A500006D0022806D003280AD106E00C9208E03E
:101A60000C9406E0CDF830C003E0CDF8308000E003
:101A700000BF00BF0C980FB0BDE8F08F0000000061
:101A800000000000010203040607080900100240DC
:101A900000127A0040787D01006CDC0200093D00F4
:101AA00010B540F2026000F00DF840F2096000F05D
:101AB00009F84FF4A06000F005F80120FFF7F8FEE8
:101AC00010BD0000064A02EB9011096800F01F03E8
:101AD00001229A401143024B03EB901211607047B0
:101AE00000100240064A02EB9011096800F01F0343
:101AF00001229A409143024B03EB90121160704710
:101B000000100240064A02EB9011096800F01F0322
:101B100001229A401143024B03EB9012116070476F
:101B20000010024010B50020002118E00020002223
:101B300008E00C4B03EBC20333F81130034498B2B6
:101B4000531CDAB2082AF4DB0246C31700EB5373C6
:101B5000C3F3CF03044C24F811304A1CD1B204293A
:101B6000E4DB10BD980900202400002000200021A3
:101B7000374A126842F48032354B1A6000BF401C6D
:101B8000334A126802F4003119B94FF6FF729042DD
:101B9000F5D12F4A126802F400320AB900BFFEE7FD
:101BA0002C4A126822F00702D21C2A4B1A60284ADB
:101BB0005268274B5A601A4652685A601A46526851
:101BC00042F480625A601A465268234B1A40204BF6
:101BD0005A601A465268214B1A431D4B5A601A46E6
:101BE000D26A1F4B1A401A4BDA621A46D26A1D4B50
:101BF0001A43174BDA621A46126842F080621A6082
:101C000000BF134A126802F00062002AF9D0104A9D
:101C1000126842F080720E4B1A6000BF0C4A1268C4
:101C200002F00072002AF9D0094A526822F0030239
:101C3000074B5A601A46526842F002025A6000BFCF
:101C4000034A526802F00802002AF9D070470000E7
:101C50000010024000200240FFFFC3DF00003520DB
:101C600000F0FEBF4906010010B5FFF77FFF10BD71
:101C700010B5124800684FF47A71B0FBF1F4601EA1
:101C8000B0F1807F01D301200FE0601E4FF0E02112
:101C900048610F214FF0FF30FEF710FD00204FF09C
:101CA000E021886107200861002008B100BFFEE73D
:101CB0000021481EFEF702FD10BD0000200000209C
:101CC0000246002031B1012906D0022906D003299D
:101CD00008D105E0506B06E0906B04E0D06B02E0A9
:101CE000106C00E000BF00BF7047CA43026170473C
:101CF0000246D06800EA01031069084010B10BB138
:101D0000012070470020FCE770B504460D4600BF77
:101D10000E4800780028FBD000200C4908700321F1
:101D20000B48FFF751F9224603210948FFF711FB41
:101D30002A4603210648FFF751FB03210448FFF719
:101D40005CF98021034800F011F970BD2D000020DE
:101D5000000002400038014010B504462146084802
:101D6000FFF760FB0648FFF70BFD4FF400720549D3
:101D70000548FEF7A1FBFFF7A7F8FFF7E5F810BD50
:101D800000380140D8090020D815002070B504465D
:101D90000D4600BF0E4800780028FBD000200C49FB
:101DA000087001210B48FFF70FF92246012109486D
:101DB000FFF7CFFA2A4601210648FFF70FFB012162
:101DC0000448FFF71AF98021034800F0CFF870BDEE
:101DD0002C000020000002400048004010B50446DE
:101DE00021460848FFF71EFB0648FFF7C9FC4FF4E1
:101DF000007205490548FEF75FFBFEF7E1FFFFF7BC
:101E00001FF810BD00480040D80D0020E815002044
:101E10002DE9F04704460D460027B846B94600268E
:101E20001D49601A8C421CD006DC1C48204470B14D
:101E3000B0F5806F1FD10FE0B0F5806F16D0B0F510
:101E40006C4F18D10320FFF769FD074614E002200C
:101E5000FFF764FD07460FE00220FFF75FFD07462E
:101E60000AE00220FFF75AFD074605E00220FFF7CF
:101E700055FD074600E000BF00BF07EB5500B0FB73
:101E8000F5F64FF6F07006EA000806F00F0948EA8A
:101E90000900A060BDE8F087004C004000BCFFBF17
:101EA00010B504462049601A8C4228D006DC1F4831
:101EB000204490B1B0F5806F33D117E0B0F5806F5A
:101EC00026D0B0F56C4F2CD140F20E30FFF71AFE41
:101ED00040F20E30FFF706FE24E040F21140FFF71B
:101EE00011FE40F21140FFF7FDFD1BE040F21240F1
:101EF000FFF708FE40F21240FFF7F4FD12E040F257
:101F00001340FFF7FFFD40F21340FFF7EBFD09E040
:101F100040F21440FFF7F6FD40F21440FFF7E2FDF7
:101F200000E000BF00BF10BD004C004000BCFFBF80
:101F30000A460021416921F0400111434161704787
:101F400070B506460C46154616B1022E0AD104E0BD
:101F500029462046FFF7D8FE05E029462046FFF730
:101F600015FF00E070BD00BF00BFFBE70A4600217F
:101F7000416921F08001114341617047C16841F41A
:101F80000051C160704710B500EB9112126801F06A
:101F90001F040123A3401A4300EB91131A6010BDE4
:101FA00070B5024600230024C1F38910105801F0D7
:101FB0001F060125B54000EA050302EB91500068B9
:101FC000C1F304460125B54000EA050414B10BB184
:101FD000012070BD0020FCE70A460021C16821F005
:101FE00004011143C16070470A460021C16821F015
:101FF00008011143C16070470100000002000000A9
:102000000400000008000000100000002000000094
:1020100040000000800000000001000000020000FD
:102020000004000000080000001000000020000074
:102030000040000000800000582000080000002040
:1020400070000000B0090008C820000870000020DF
:1020500088190000C009000801000000000000000D
:102060000000000000000000000000000000000070
:102070000000000000000000000E27070000000024
:102080000000000001010E061107120713070000EF
:102090000002000004000000000400000004000032
:1020A0000004000008000000000800000008000014
:1020B00000080140000C0140000C014000100140EC
:0820C0000206050603060506F1
:04000005080001519D
:00000001FF
